:100000000C9462040C94A9040C94A9040C94A90403
:100010000C94A9040C94A9040C94A9040C94A904AC
:100020000C94A9040C94A9040C94CF240C94A2253C
:100030000C94B01B0C94A9040C94A9040C94A9046E
:100040000C94A9040C94A9040C94A9040C94A9047C
:100050000C94A9040C94161C0C94A9040C94A904E7
:100060000C94A9040C94A9040C94A9040C94A9045C
:100070000C94A9040C94A9040C94A9040C94A9044C
:100080000C94A9040C94A9040C94A9040C94A9043C
:100090000C94A9040C94A9040C94A9040C94A9042C
:1000A0000C94A9040C94A9040C94A90429001E0022
:1000B0001F0020002100220023002400250026002C
:1000C00027002D002E002A002B0014001A00080023
:1000D000150017001C0018000C00120013002F0060
:1000E00030003100390004001600070009000A0042
:1000F0000B000D000E000F0033003400000028003C
:10010000E10000001D001B000600190005001100A1
:1001100010003600370038000151E100E000E30034
:10012000E200000000002C0000000000000035008C
:100130005000510052004F0000703A003B003C005C
:100140003D003E003F0040004100420043004400AB
:100150004500010001000100010001000100010053
:100160000100010001000100010001000100010087
:100170000100AA00A900A80001000100010001007F
:100180000100010001000100000001000100000069
:100190000100010001000100010001000100010057
:1001A0000100010001000100010001000100000048
:1001B000000001000000000000000100010001003B
:1001C0000100010001000100010001000100010027
:1001D0000100010001000100010001000100010017
:1001E0000100010001000100010001000100010007
:1001F00001000100010001000100010001000100F7
:1002000001000100010001000100010001000100E6
:1002100001000100000001000100000001000100D8
:1002200001000100010001000100010001000100C6
:1002300001000100010001000100000000000100B8
:1002400000000000000001000100010001000100A9
:100250000100010001000100010001000100010096
:100260000100010001000100010001000100010086
:100270000100010001000100010001000100010076
:100280000100010001000100010001000100010066
:100290000100010001000100010001000100010056
:1002A0000000010001000000010001000100010048
:1002B0000100010001000100010001000100010036
:1002C000010001000100000000000100000000002A
:1002D0000000010001000100010001000100010017
:1002E0000100010001000100010001000100010006
:1002F00001000100010001000100010001000100F6
:1003000001000100010001000100010001000100E5
:1003100001000100010001000100010001000100D5
:1003200001000100010001000100010000000100C6
:1003300001000000010001000100010001000100B6
:1003400001000100010001000100010001000100A5
:10035000010000000000010000000000000001009A
:100360000100010001000100010001000100010085
:100370000100010001000100010001000100010075
:100380000100010001000100010001000100010065
:100390000100010001000100010001000100010055
:1003A0000100010001000100010001000100010045
:1003B0000100010001000100000001000100000037
:1003C0000100010001000100010001000100010025
:1003D0000100010001000100010001000100000016
:1003E0000000010000000000000001000100010009
:1003F00001000100010001000100010001000100F5
:1004000001000100010001000100010001000100E4
:1004100001000100010001000100010001000100D4
:1004200001000100010001000100010001000100C4
:1004300001000100010001000100010001000100B4
:1004400001000100000001000100000001000100A6
:100450000100010001000100010001000100010094
:100460000100010001000100010000000000010086
:100470000000000000000100010001000100010077
:100480000100010001000100010001000100010064
:100490000100010001000100010001000100010054
:1004A0000100010001000100010001000100010044
:1004B0000100010001000100010001000100010034
:1004C0000100010001000100010001000100010024
:1004D0000000010001000000010001000100010016
:1004E0000100010001000100010001000100010004
:1004F00001000100010000000000010000000000F8
:1005000000000100010001000100010064321464D8
:100510003214783C1E1E140A05000000000101017F
:100520000202030405050607090A0B0C0E0F11123F
:10053000141517191B1D1F212325282A2C2F313490
:1005400036393B3E414346494C4F5255585A5D61FE
:1005500064676A6D707376797C7F8386898C8F92ED
:1005600095989B9EA2A5A7AAADB0B3B6B9BCBEC1D3
:10057000C4C6C9CBCED0D3D5D7DADCDEE0E2E4E620
:10058000E8EAEBEDEEF0F1F3F4F5F6F8F9FAFAFB40
:10059000FCFDFDFEFEFEFFFFFFFFFFFFFFFEFEFE78
:1005A000FDFDFCFBFAFAF9F8F6F5F4F3F1F0EEEDE7
:1005B000EBEAE8E6E4E2E0DEDCDAD7D5D3D0CECB76
:1005C000C9C6C4C1BEBCB9B6B3B0ADAAA7A5A29EE8
:1005D0009B9895928F8C898683807C797673706DD9
:1005E0006A6764615D5A5855524F4C494643413ED3
:1005F0003B393634312F2C2A282523211F1D1B1966
:1006000017151412110F0E0C0B0A09070605050425
:1006100003020201010100000000000000000101CE
:1006200001010101010101020202020202020202B1
:100630000303030303030303040404040404050580
:100640000505050606060606070707070808080841
:100650000909090A0A0A0A0B0B0B0C0C0C0D0D0DEB
:100660000E0E0F0F0F10101111111212131314147C
:10067000151516161717181819191A1A1B1C1C1DF0
:100680001D1E1F1F20202122222324252526272747
:1006900028292A2B2B2C2D2E2F2F30313233343575
:1006A00036363738393A3B3C3D3E3F404142434481
:1006B000464748494A4B4C4D4F5051525355565757
:1006C000585A5B5C5E5F606263646667696A6C6D02
:1006D0006E707173747678797B7C7E80818384867A
:1006E000888A8B8D8F91929496989A9B9D9FA1A3B7
:1006F000A5A7A9ABADAFB1B3B5B7B9BBBDBFC1C4B9
:10070000C6C8CACCCFD1D3D6D8DADCDFE1E4E6E87C
:10071000EBEDF0F2F5F7FAFCFF12036B00650079E0
:100720000062006F00610072006400000016037137
:10073000006D006B006200750069006C006400656C
:1007400000720000000403090409026D00040100A6
:10075000A0FA0904000001030101000921110100B0
:10076000012240000705810308000A090401000175
:1007700003010200092111010001224D0007058239
:100780000308000A09040200010300000009211106
:100790000100012236000705830308000A0904034B
:1007A00000010300000009211101000122390007A6
:1007B0000584032000011201100100000008EDFE75
:1007C000606001000102000105010906A1010507A1
:1007D00019E029E715002501950875018102050832
:1007E000190129059505750191029501750391017E
:1007F0000507190029F71500250195F875018102F3
:10080000C005010980A10185021601002603001A16
:1008100081002A8300751095018100C0050C090133
:10082000A1018503160100269C021A01002A9C02E0
:10083000751095018100C005010902A1010901A1FE
:100840000005091901290515002501950575018186
:1008500002950175038101050109300931158125D2
:100860007F95027508810609381581257F950175E8
:10087000088106050C0A38021581257F9501750847
:100880008106C0C005010906A101050719E029E795
:1008900015002501950875018102950175088101F2
:1008A0000508190129059505750191029501750342
:1008B00091010507190029FF150026FF009506750F
:1008C000088100C011241FBECFEFDAE0DEBFCDBF2C
:1008D00004B603FE27C08091810290918202A0910C
:1008E0008302B09184028730904BA740B04BD1F483
:1008F000109281021092820210928302109284025E
:1009000014BE84B7877F84BF0FB6F894A8958091F2
:100910006000886180936000109260000FBEE0E08C
:10092000F8E3099511E0A0E0B1E0EEE7F2E502C0DE
:1009300005900D92AC33B107D9F722E0ACE3B1E0FA
:1009400001C01D92A138B207E1F70E941C220C944D
:10095000EE280C94000090E080E00895089508953A
:1009600081E0089581FF03C0229A2A980895229871
:10097000FCCF81E008950C94B0040E9449142FEF3D
:1009800084E39CE0215080409040E1F700C00000EB
:100990000C94391CFF920F931F93CF93DF938C011C
:1009A000FC01C081D18180918D01811148C082817B
:1009B000882309F43FC0CE010E947919F82E682FD0
:1009C000CE010E942519BE018F2D0E949406EC01D4
:1009D000B8010E94BB04882309F478C0B801CE0195
:1009E0000E94C008882309F471C0C633F0E7DF070E
:1009F00009F484C0C0F5C53190E7D90728F5C230A5
:100A0000E0E7DE0708F099C0C115F0E7DF0709F459
:100A100058C0C130D04709F460C081E080933E01E6
:100A200080933F01C801DF91CF911F910F91FF90FB
:100A30000C94B904CE010E945119F82EC4CFCE01F6
:100A40000E947919BE01C1CFC43390E7D90709F4D8
:100A50004EC0C533D04709F7F80182818823B1F130
:100A60000E94E60C33C0CA33F0E7DF0709F457C031
:100A700070F4F8018281C833F0E7DF0709F44AC057
:100A800008F443C0882311F10E942A0C1FC0CC3304
:100A9000E0E7DE0709F4C3C008F448C0CD33D0470F
:100AA00009F0BBCFF8018281882309F4DFC01092DE
:100AB0003F010E94E01B90933D0180933C0180E246
:100AC000BBC0F801828181110E94BD0480E0DF91EA
:100AD000CF911F910F91FF900895F8018281882393
:100AE000A9F380912002816080932002EFCFF8016A
:100AF0008281882359F30E94F00CE8CFF8018281AB
:100B0000882321F30E94DB0BE1CF8823F9F20E94B6
:100B1000F30BDCCF8823D1F20E94120CD7CFF8015F
:100B20008281882399F20E94420CD0CFF801828101
:100B3000882361F20E945A0CC9CFF8018281882370
:100B400009F470CF0E94331B811102C00E940D1B5B
:100B50000E94501B90E09093720280937102FE01FC
:100B6000E350F047809171028160E231F10538F481
:100B7000E051F74D0C94A02880917102826080931F
:100B80007102809171020E94541B0E9449149ECFF1
:100B9000809171028460F3CF809171028860EFCF01
:100BA000809171028061EBCF809171028062E7CF0A
:100BB000809171028064E3CF809171028068DFCF01
:100BC000809171028C60DBCF809171028E7FD7CFD4
:100BD000809171028D7FD3CF809171028B7FCFCFB7
:100BE00080917102877FCBCF809171028F7EC7CFBA
:100BF000809171028F7DC3CF809171028F7BBFCFB7
:100C0000809171028F77BBCF80917102837FB7CFC4
:100C100090917102892F97FB87F98058B0CFF80126
:100C20008281882361F010923E010E94E01B909324
:100C30003D0180933C0182E00E94DF1147CF80910B
:100C40003E0181110FC080913C0190913D010E94B5
:100C5000EC1B883C910530F486E20E94B41086E2D9
:100C60000E94901182E00E94E61130CF80913F01F6
:100C700081110FC080913C0190913D010E94EC1BBD
:100C8000883C910530F487E20E94B41087E20E940C
:100C9000901180E2E8CF0C941109269A2E988FEFDC
:100CA0009FEF909387008093860082E2809380007C
:100CB00089E1809381000C94D11F0E944D060C9411
:100CC0000F092E9881110AC0809180008F7D80933A
:100CD000800010928B0010928A000895833061F496
:100CE000809180008062809380008FEF9FEF9093CF
:100CF0008B0080938A000895909180009062909379
:100D0000800023E030E0281B3109220F331F8FEFD2
:100D10009FEF02C0969587952A95E2F7E8CF0C944D
:100D2000B2040C948F060895972F70E02EE0929FE6
:100D3000600D711D1124FB0196E4899FE00DF11DEA
:100D40001124EE0FFF1FE455FF4F859194910895F4
:100D5000FC01EE0FFF1FE45FFA4F85919491089517
:100D60000E9494060E944408811520E5920708F02D
:100D700042C0811530E4930708F0F9C0883E910520
:100D800028F5803E910508F07EC1883A910590F4DF
:100D9000853A910508F086C08130910509F473C148
:100DA000009709F470C18430910508F06CC190E09F
:100DB00080E008958D3B910508F47FC0803C91054B
:100DC000B0F3805C91090E94A8060895811540E265
:100DD000940750F4811561E0960708F054C1803FF4
:100DE000910528F390650895811570E3970708F041
:100DF000BBC09F70E8CF811525E5920748F58115A6
:100E000034E5930708F0E4C0811542E5940750F4F7
:100E1000811561E5960708F4ADC0982F8827816F8A
:100E2000906A0895282F26952695AC014370552782
:100E30008115934508F0BDC081E090E002C0880FA5
:100E4000991F4A95E2F770E2279F90011124ADC0E7
:100E5000803320E7920798F4803230E7930708F058
:100E6000C1C0811546E5940708F4B7C09C0130560F
:100E70009F702115304108F09ACF90620895813318
:100E800070E7970709F4B2C008F4B3C0823330E7C3
:100E9000930709F4B1C08333904709F088CF80E00D
:100EA00093ED0895853A910509F4A9C0863A910514
:100EB00009F0A8C082E890E40895883A910509F401
:100EC000A4C0893A910509F4A3C08A3A910509F4AE
:100ED000A2C08B3A910509F4A1C08C3A910509F49E
:100EE000A0C08B3B910509F49FC08C3B910509F490
:100EF0009EC08D3A910509F49DC0803B910509F48F
:100F00009CC08E3A910509F49BC08F3A910509F473
:100F10009AC0813B910509F499C0823B910509F47F
:100F200098C0833B910509F497C0843B910509F46F
:100F300096C0853B910509F495C0863B910509F45F
:100F400094C0873B910509F493C0883B910509F44F
:100F500092C0893B910509F491C08A3B910509F43F
:100F600090C080E094E408959927906C08959F7054
:100F7000906A08959C0154E0369527955A95E1F7BB
:100F8000922F9370282F26952695237060E2269F36
:100F900090011124392B837041E050E0BA0102C066
:100FA000660F771F8A95E2F7CB01822B932B9C6803
:100FB000089581E090E002C0880F991F4A95E2F7FA
:100FC00040E2249F90011124822B932B9A6808956C
:100FD000982F8827846F906A0895982F88278827EC
:100FE0009F714BCF80529047946D089580E090EDB3
:100FF000089580E091ED089580E092ED089581E8F4
:1010000090E4089583E890E4089582EE94E40895CE
:1010100089EE94E408958AEE94E4089585EB94E4CF
:10102000089586EB94E4089583EB94E4089584EBAB
:1010300094E4089587EB94E408958CEC94E4089587
:101040008DEC94E4089583E895E408958AE895E4A6
:10105000089582E995E4089584E995E4089581E28C
:1010600096E4089583E296E4089584E296E4089570
:1010700085E296E4089586E296E4089587E296E490
:1010800008958AE296E408958238910549F1B0F412
:101090008133910509F462C048F48932910509F45D
:1010A00056C08A32910509F460C0089585339105D0
:1010B00009F446C08933910599F00895833E91055E
:1010C00031F138F4803E910591F0823E9105B1F006
:1010D0000895863E910521F1873E910551F10895CD
:1010E000209171022370D9F080EE90E00895209154
:1010F000710220FF14C089E390E0089520917102ED
:1011000022FF0DC024FD09C083EE90E008952091D8
:10111000710222FD31C024FF02C090E080E00895FA
:101120002091710223FFFBCF24FDF7CF87EE90E0E3
:1011300008952091710223FFEECF86EE90E008958E
:101140002091710225FFEBCF89E290E00895209174
:10115000710225FFE4CF85E390E0089520917102AC
:1011600026FFDDCF8AE290E008952091710226FFEC
:10117000D6CF81E390E0089582EE90E0089508953F
:101180000F931F93CF938C01FB018281811106C0C5
:10119000C1E08C2FCF911F910F910895C0914D0107
:1011A000C11125C00531104799F70E94BF0881E0A1
:1011B00080934D010E94E01B90934C0180934B0162
:1011C000109240011092420110924101109244018C
:1011D000109243011092460110924501109248016D
:1011E0001092470110924A0110924901D2CF80918A
:1011F0004B0190914C010E94EC1B883C910540F6FC
:1012000080914001E82FF0E0EE0FFF1FEF5BFE4FF3
:10121000118300838F5F80934001C0E0BACF0C94AC
:10122000AE040C94AF04CF93DF9385B7806885BF7D
:1012300085B7806885BFA2E2B1E047E251E0C1E036
:10124000D0E08D91E82FE295EF70F0E061A18F7012
:101250009E0101C0220F8A95EAF7922F909596235E
:1012600091A382A1822B82A34A175B0751F7A4E1C5
:10127000B1E061E070E08D91E82FE295EF70F0E071
:1012800041A18F709B0101C0220F8A95EAF7922F2E
:101290009095942391A382A1822B82A381E0A23214
:1012A000B80749F7109259011092580110924F0156
:1012B00010924E0110925B0110925A01109251014E
:1012C0001092500110925D0110925C011092530136
:1012D0001092520110925F0110925E01109255011E
:1012E0001092540110926101109260011092570106
:1012F00010925601DF91CF910C945D064F925F9250
:101300007F928F929F92AF92BF92CF92DF92EF9295
:10131000FF920F931F93CF93DF939EE4492E91E0AA
:10132000592E22E2E22E21E0F22E01E010E0992473
:101330009394E201A990B9902E01DE011E921E92B3
:10134000F70181917F01E82FE295EF70F0E091A124
:101350008F70980101C0220F8A95EAF7892F822B9E
:1013600081A382A1822E8094882182A380EA8A951B
:10137000F1F784E1C82E81E0D82E90E080E0E6010C
:1013800079916E01472F42954F7050E0EA0178A0A5
:101390004D915C9111977F70E80102C0CC0FDD1F69
:1013A0007A95E2F7BE01672109F072C0B801082EF4
:1013B00002C0660F771F0A94E2F7462B572B11964F
:1013C0005C934E9301968E309105C9F681A18822D7
:1013D00081A282A1282B22A38D919C91A816B906E7
:1013E00041F0909262010E94E01B9093640180930F
:1013F0006301D8E54D16D1E05D0609F09ACF8091E2
:101400006201882391F180916301909164010E94AF
:10141000EC1B069750F180914E0190914F019093F3
:1014200059018093580180915001909151019093FE
:101430005B0180935A0180915201909153019093E6
:101440005D0180935C0180915401909155019093CE
:101450005F0180935E0180915601909157019093B6
:10146000610180936001109262010E944B0681E04D
:10147000DF91CF911F910F91FF90EF90DF90CF9070
:10148000BF90AF909F908F907F905F904F90089506
:1014900070E060E092CFE82FF0E0EE0FFF1FE85A17
:1014A000FE4F80819181089508953EB1242F2095AB
:1014B00023233EB1432B3FB7F894680F791F86175B
:1014C000970711F43FBF0895FC015191CF01E8E067
:1014D0004EB9000000C057FF2EB9550F000000C0E4
:1014E00000C000C02EB900C0EA9591F7E8CF2DB139
:1014F000242B2DB99B01220F331F620F731F0E94F3
:10150000550A87EC90E00197F1F700C000000895BC
:1015100044E00C94770ACF92DF92EF92FF920F9300
:101520001F93CF93DF93E901662309F466C0E42E8D
:10153000F12CEFEFF0E0E61BF109EE9D8001EF9D4D
:10154000100DFE9D100D1124212FE12FFF27EE1A03
:10155000FF0A5CE3C52ED12CB6010E947828FB015E
:10156000BC01E69EC001E79E900DF69E900D1124F1
:10157000B6010E947828E230F10589F168F4812FE4
:10158000262F210F309781F0242F461B319761F0D1
:1015900080E020E040E008C0E430F10551F128F19E
:1015A000842F861B3597A1F7E42FF0E0E75EF94F13
:1015B0004491E22FF0E0E75EF94F9491E82FF0E0DC
:1015C000E75EF94FE49149839883EA83DF91CF91F5
:1015D0001F910F91FF90EF90DF90CF900895862F8D
:1015E000810FE42F412F2E2FDFCFE42FE61B842F16
:1015F000F9CF842F462F410FD7CF842F242FD4CF5C
:1016000088E090E00C94AE28AB01BC0188E090E04B
:101610000C94CC28EDE4F2E083E0808311828FEF1C
:101620008283838360914D0270914E0280914F02BC
:10163000909150020C94040B80914D02E5E5F2E08C
:1016400080FF06C068E070E085E592E00C94880AAF
:10165000118210821282339682E0ED36F807C1F7CC
:10166000F1CFE5E5F2E0818360834283339692E037
:10167000ED36F907C1F70C941C0BEF92FF920F9314
:101680001F93CF93DF9300D00F92CDB7DEB7182F03
:10169000E92EF62E042F80914D0290914E02A091DA
:1016A0004F02B09150028093510290935202A09346
:1016B0005302B093540280914D0280FF1FC09E01DF
:1016C0002F5F3F4F812F9E2D0E948B0A80915102E8
:1016D00010FB87F980935102169580915202807811
:1016E000812BE0FA87F980935202F0925302009323
:1016F00054024B8169818A810E94310B0F900F90B7
:101700000F90DF91CF911F910F91FF90EF9008956F
:101710000F931F93CF93DF93EC01062F142F90911B
:101720004D0290FF43C0892F8E77823021F5CE0184
:101730000E943D0B80914D02C0FB87F980934D02C2
:10174000C69580914E028078C82BD0FBC7F9C09314
:101750004E0200934F021093500260914D0270911F
:101760004E0280914F0290915002DF91CF911F91D4
:101770000F910C94040B892F86958F732EE3280FFD
:101780002F73243018F410915002D4CF865C8F73DD
:10179000893080F6991F9927991FD0914E02CD2F3D
:1017A000CC0FC92BD7FBDD27D0F9C4CFDF91CF9168
:1017B0001F910F910895EDE4F2E02081221F22276E
:1017C000221F30914E02432F440F842F822B37FB70
:1017D000992790F9089668E671E00E948C28438169
:1017E00062810C94880B20914D02221F2227221F18
:1017F00030914E02432F440F842F822B37FB9927C1
:1018000090F98830910540F4805A9E4F40915002E3
:1018100060914F020C94880B089768E671E00E9473
:101820008C28F4CF60914F02683F90F4685F8091FC
:101830004D02881F8827881F90914E02292F220F62
:1018400097FB992790F940915002822B0C94880BBA
:101850006FEFEDCF60914F02683090F0685080914B
:101860004D02881F8827881F90914E02292F220F32
:1018700097FB992790F940915002822B0C94880B8A
:1018800060E0EDCF40915002483F90F4485F809176
:101890004D02881F8827881F90914E02292F220F02
:1018A00097FB992790F960914F02822B0C94880B3B
:1018B0004FEFEDCF40915002483090F0485080916A
:1018C0004D02881F8827881F90914E02292F220FD2
:1018D00097FB992790F960914F02822B0C94880B0B
:1018E00040E0EDCF90914D0290FF3BC09178811187
:1018F00026C0926090934D0260914D0270914E020D
:1019000080914F02909150020E94040B80914D02F1
:10191000982F9E779230D9F410927A01881F8827E9
:10192000881F90914E02292F220F97FB992790F93B
:101930004091500260914F02822B0C94880B8931A8
:1019400010F09063D7CF8F73880F982BD3CF982F39
:101950009695925C9F73963108F791E090937A0187
:10196000DDCF08958091200281608093200281E084
:1019700080937B010E94331B811104C00E940D1BC8
:101980000E940A0B0E94000B60934D0270934E025E
:1019900080934F02909350026E7761F40E940A0B7D
:1019A0000E94000B60934D0270934E0280934F0291
:1019B0009093500281E080937A0180914D0280FFE4
:1019C00004C086958F730C94720C089580914D021B
:1019D00086958F738F5F893108F081E00C94720CCB
:1019E00090914D02892F8E7F90FF816080934D02F0
:1019F00060914D0270914E0280914F029091500281
:101A00000E94040B80914D0280FF04C086958F7365
:101A10000C94720C10927A012FEF80E792E0215023
:101A200080409040E1F700C000000C941C0BCF9365
:101A3000C82F80917801909179010E94EC1BEC2FC6
:101A4000F0E0EB5EFA4FE491E817190609F010F5A3
:101A50000E94E01B9093790180937801E0917701D7
:101A6000F0E0E75EFA4F449180914D02881F88278D
:101A7000881F90914E02292F220F97FB992790F9EA
:101A800060914F02822B0E943D0B809177018F5F06
:101A900080937701CF910895CF93C82F80917501DE
:101AA000909176010E94EC1BEC2FF0E0EE5EFA4F75
:101AB000E491E817190609F0E8F40E94E01B9093FE
:101AC0007601809375014091500260914F028091A0
:101AD0007301909174010E943D0B8091730190916C
:101AE0007401019668E671E00E9478289093740171
:101AF00080937301CF910895CF92DF92FF920F935D
:101B00001F93CF93DF93F82E809171019091720112
:101B10000E94EC1BEF2DE695F0E0EE5EFA4FE491AB
:101B2000E817190609F0A8F50E94E01B90937201CE
:101B30008093710105E512E0D0E0C0E088E6C82E90
:101B4000DD24D39480916F01909170018C0F9D1FC3
:101B5000B6010E94782898014091500260914F028E
:101B60000E948B0AAD960D5F1F4FC83681E0D807E3
:101B700049F70E941C0B80916F0190917001F0FE5B
:101B800010C00196BE010E94782890937001809346
:101B90006F01DF91CF911F910F91FF90DF90CF9058
:101BA00008950197F2CFAF92BF92CF92DF92EF925A
:101BB000FF920F931F93CF93DF93C82FFF24FA94C4
:101BC00080FD02C0FF24F39480916D0190916E011D
:101BD0000E94EC1BC695EC2FF0E0E15FFA4FE49118
:101BE000E817190611F008F053C00E94E01B90930B
:101BF0006E0180936D01C5E5D2E010E000E097E052
:101C0000C92ED12C198218821A8287E0A82EB12CF5
:101C1000E12C80916C018E0D87FD885F082E000CF1
:101C2000990B80179107E9F4209150022A9DC00179
:101C30002B9D900D1124B6010E948C28462F809177
:101C40004D02881F8827881F90914E02592F550FEB
:101C500097FB992790F99E0160914F02852B0E9476
:101C60008B0AEF0C81E0A81AB10899F60F5F1F4F9D
:101C700023960830110531F60E941C0B80916C01EF
:101C800091E0F91212C081110EC087E080936C01BF
:101C9000DF91CF911F910F91FF90EF90DF90CF9048
:101CA000BF90AF9008958150F1CF90E0019687707A
:101CB0009927ECCFBF92CF92DF92EF92FF920F93D2
:101CC0001F93CF93DF93CDB7DEB768970FB6F89425
:101CD000DEBF0FBECDBF182F80916A0190916B01BE
:101CE0000E94EC1BE12FF0E0E45FFA4FE491E8176B
:101CF000190611F008F071C00E94E01B90936B016F
:101D000080936A018E010F5F1F4FF12CE12C680157
:101D1000F801118210821282B12C90910001809101
:101D20006901B99E800D112488300CF087E087FD91
:101D300080E0082E000C990B8E159F05A1F4809170
:101D40004D02881F8827881F90914E02592F550FEA
:101D500097FB992790F998014091500260914F02AA
:101D6000852B0E948B0AB394F7E0BF12D6CF8FEF7A
:101D7000E81AF80A0D5F1F4FE8E0EE16F10441F68D
:101D8000A5E5B2E089E090E09C0127703327F901D6
:101D9000EE0FFF1FE20FF31FEC0DFD1D21811196C9
:101DA0002C93119720812C93228112962C931297B9
:101DB000019613968131910539F70E941C0B909181
:101DC0000001809169019130E1F48A3FB4F489EF18
:101DD000809369018FEF8093000168960FB6F894A5
:101DE000DEBF0FBECDBFDF91CF911F910F91FF904E
:101DF000EF90DF90CF90BF9008958150809369015C
:101E0000ECCF8F302CF08EE08093690181E0E3CF3E
:101E10008F5FF4CFCF93DF9380916701909168013A
:101E20000E94EC1B883E934028F10E94E01B909397
:101E30006801809367018091650190916601019628
:101E4000817099279093660180936501C5E5D2E082
:101E50009E014091500260914F0290E080E00E940C
:101E60008B0A239682E0CD36D80791F7DF91CF9188
:101E70000C941C0BDF91CF91089580917A018823F7
:101E800071F180914D0286958F739EE3980F9F7339
:101E9000943018F482500C94170D9AE3980F9F73A6
:101EA000933018F486500C944C0D97E3980F9F7361
:101EB000963018F489500C947C0D91E3980F9F7321
:101EC000963018F48F500C94D30D9BE2980F9F73AB
:101ED000933018F485510C945A0E0C940A0F0895FF
:101EE00090938101809380010895E0918001F091A9
:101EF0008101309721F00190F081E02D099480E07C
:101F00000895E0918001F0918101309721F00280E5
:101F1000F381E02D09940895E0918001F091810111
:101F2000309721F00480F581E02D099408952091E7
:101F30007E0130917F012817390771F090937F015E
:101F400080937E01E0918001F0918101309721F032
:101F50000680F781E02D0994089520917C0130914D
:101F60007D012817390771F090937D0180937C01E2
:101F7000E0918001F0918101309721F00084F1859A
:101F8000E02D0994089508950C94C30F0E94D71B67
:101F90000E9413090E94A61C0E94D11F0C94B20C2F
:101FA0005F926F927F928F929F92AF92BF92CF92E9
:101FB000DF92EF92FF920F931F93CF93DF93CDB7F2
:101FC000DEB72A970FB6F894DEBF0FBECDBF0E94D2
:101FD0007E0993E8A92E91E0B92E10E000E0882454
:101FE0008394912C502E802F0E944B0A7C01F50186
:101FF000C190D1905F01C816D90609F45EC08091E6
:10200000200281FD0E94540A90E080E0CE24DF246B
:102010003401082E02C0660C771C0A94E2F7960180
:1020200026213721232B09F443C08E835F82E620CB
:10203000F72081E0EF2809F480E088870E94E01B08
:102040008160782F9A8789874E815F8168858A852C
:102050000E948A10000F111FF801ED57FE4F80817A
:10206000918168267926718260820E94241F0E94D5
:10207000750F909182018917B9F10E94750F8093B5
:1020800082012A960FB6F894DEBF0FBECDBFDF9156
:10209000CF911F910F91FF90EF90DF90CF90BF9065
:1020A000AF909F908F907F906F905F900C9491066F
:1020B00001968E30910509F0ABCF0F5F1F4F0530B1
:1020C000110509F08FCF8FEF89838A831B820E94CD
:1020D000E01B8160782F9D838C8349815A816B81BD
:1020E0008D810E948A10C1CF2A960FB6F894DEBF68
:1020F0000FBECDBFDF91CF911F910F91FF90EF9059
:10210000DF90CF90BF90AF909F908F907F906F9017
:102110005F900895CF93DF93CDB7DEB72B970FB6BF
:10212000F894DEBF0FBECDBF4F83588769877A878B
:102130008B871E821D8285E0FE013796DE01119697
:1021400001900D928A95E1F749815A816B817C81DA
:102150008D819E812B960FB6F894DEBF0FBECDBF4A
:10216000DF91CF910C94D916882309F4D8C0823816
:1021700071F40E94750F81FDD2C089E30E94191A83
:102180000E94DE1A89E30E94561A0C94DE1A8338E4
:1021900059F40E94750F80FDC2C083E50E94191A90
:1021A0000E94DE1A83E5EFCF843859F40E94750F40
:1021B00082FDB5C087E40E94191A0E94DE1A87E4E6
:1021C000E2CF9CEF980F913A18F40E94191ADDCFD4
:1021D00090E2980F983050F4877091E001C0990F09
:1021E0008A95EAF7892F0E94981ACFCF9BE5980F1E
:1021F000933070F4853A31F0863A39F083E890E014
:102200000C94970F81E890E0FBCF82E890E0F8CF44
:1022100098E5980F953108F082C0883A09F440C0DB
:10222000893A09F440C08A3A09F440C08B3A09F46B
:1022300040C08C3A09F440C08B3B09F440C08C3B51
:1022400009F440C08D3A09F440C0803B09F440C015
:102250008E3A09F440C08F3A09F440C0813B09F43A
:1022600040C0823B09F440C0833B09F440C0843B3A
:1022700009F440C0853B09F440C0863B09F440C0E6
:10228000873B09F440C0883B09F440C0893B09F40E
:1022900040C08A3B09F440C090E080E00C94AD0F50
:1022A00082EE90E0FBCF89EE90E0F8CF8AEE90E0EE
:1022B000F5CF85EB90E0F2CF86EB90E0EFCF83EBAC
:1022C00090E0ECCF84EB90E0E9CF87EB90E0E6CFB5
:1022D0008CEC90E0E3CF8DEC90E0E0CF83E891E0F0
:1022E000DDCF8AE891E0DACF82E991E0D7CF84E9C7
:1022F00091E0D4CF81E292E0D1CF83E292E0CECFE1
:1023000084E292E0CBCF85E292E0C8CF86E292E011
:10231000C5CF87E292E0C2CF8AE292E0BFCF0895B4
:10232000882309F44BC0823871F40E94750F81FF35
:1023300045C089E30E94191A0E94DE1A89E30E94AF
:10234000561A0C94DE1A833859F40E94750F80FFD8
:1023500035C083E50E94191A0E94DE1A83E5EFCF8B
:10236000843859F40E94750F82FF28C087E40E94C8
:10237000191A0E94DE1A87E4E2CF9CEF980F913A77
:10238000F0F290E2980F983050F4877091E001C01D
:10239000990F8A95EAF7892F0E949E1AD2CF9BE562
:1023A000980F933020F490E080E00C94970F885AB7
:1023B000853120F490E080E00C94AD0F08958823DF
:1023C00021F00E94981A0C94DE1A0895882321F0B7
:1023D0000E949E1A0C94DE1A08958F929F92AF92DB
:1023E000BF92DF92EF92FF920F931F93CF93DF93F1
:1023F0007C01D62FC72FFC01058102950F70128139
:1024000011110E94B51A0E94121AD82E882371F059
:102410001123A1F080E28D0F883080F082E00E94CD
:10242000FC190E94121A91E0D82ED926EC2FE295C1
:10243000EF70F0E0EE5FF64D0C94A028D12CF6CFB3
:102440000C2F0F70C07F11F00295007F1123A9F0AF
:10245000002359F080E28D0F883010F0D11109C0AF
:10246000802F0E94981A0E94DE1A8D2F0E94B410AD
:1024700014C0802F0E94A81AF6CF8D2F0E949011B1
:10248000002359F080E28D0F883010F0D11124C064
:10249000802F0E949E1A0E94DE1ADD2009F4AFC12F
:1024A0000E94EF1980FDABC1F70112820E94E91969
:1024B0000E946918C7010E940B140E94E919DF915C
:1024C000CF911F910F91FF90EF90DF90BF90AF9051
:1024D0009F908F900C948A18802F0E94AE1ADBCFA9
:1024E000FC2FFF70BF2EC07FC03219F0B29480EF76
:1024F000B822DD2369F0D13029F1112369F10023DD
:1025000059F0F701858180FFB0CF8F70858304C0BB
:10251000112361F0011104C08B2D0E94DF11BDCF8A
:102520008B2D0130D1F70E94C81AB7CF011106C018
:102530000E94CB1A8B2D0E94E611AFCF013009F417
:10254000ACCFF6CF112321F0063008F0A6CFE4CFB0
:10255000053008F0A2CFEECF002361F38D2F0E944B
:1025600090119BCF8C2F86958695837069F0813072
:1025700009F093CF8D2F9C2F9370111102C090E022
:1025800080E00E94AD0F89CF8D2F9C2F9370111189
:1025900002C090E080E00E94970F7FCF8D2F112323
:1025A00029F00E94321E0E94191F77CF0E949A1EA6
:1025B000FACF8C2F837009F047C011116ECF2D2FE9
:1025C000229526952770220F220F6D2F6F70862E71
:1025D000912CB12CA12C022E04C0880C991CAA1C91
:1025E000BB1C0A94D2F760E070E0CB01D4FF0FC0AF
:1025F0006FE070E080E090E004C0660F771F881FF6
:10260000991F2A95D2F76095709580959095C695FB
:10261000C695C370C23051F080F4682979298A299F
:102620009B29C13071F00E94121837CF682979298F
:102630008A299B290E942E1830CF0E941218C501AA
:10264000B4010E94F61729CF8695112311F08C2F23
:102650008170882309F421CF2D2F2295269527708C
:10266000220F220F6D2F6F70862E912CB12CA12C72
:10267000022E04C0880C991CAA1CBB1C0A94D2F719
:1026800060E070E0CB01D4FF0FC06FE070E080E04D
:1026900090E004C0660F771F881F991F2A95D2F714
:1026A0006095709580959095C695C695C370C2301B
:1026B00051F080F4682979298A299B29C13071F069
:1026C0000E94EC18EACE682979298A299B290E9460
:1026D0000819E3CE0E94EC18C501B4010E94D0187D
:1026E000DCCEE0E2ED0FE53108F04DC0F0E0EE5E4B
:1026F000F64D0C94A028DF708C2F8F71112321F0E0
:102700000E9469188D2F09CF0E948A188D2F13CF30
:10271000112341F0053008F0C0CE8C2F8F710E943C
:10272000AF18BBCE063008F0B8CEF7CF8C2F8F7124
:10273000112339F00E946918B0CE8C2F8F711123AC
:10274000C9F30E948A18A9CE112329F08C2F8F710A
:102750000E945418A2CE0E944A189FCE112349F01D
:10276000CF718C2F0E94691863E08C2F0E94F3199F
:1027700094CE81E00E94FC19023008F48ECE82E0F3
:102780000E94FC198ACE112329F001116ECE8C2FE4
:102790008F71D0CF0111E2CE8C2F8F71D2CF4C2F01
:1027A0004F706D2FC7010E94AB040E94731775CE46
:1027B000111173CECF70C230A9F040F4CC2379F060
:1027C000C13009F06ACE0E94FA1F67CEC33069F0AB
:1027D000C43009F062CE8D2F0E9449205ECE0E9447
:1027E000E21F5BCE0E94132058CE0E94262055CEB9
:1027F0004C2F4F706D2FC7010E9493064ECEDF9174
:10280000CF911F910F91FF90EF90DF90BF90AF900D
:102810009F908F9008950F931F93CF93DF93EC01B8
:102820008B819C81892B29F08881998189238F3F15
:1028300029F4DF91CF911F910F910895CE010E944D
:10284000CA048823B1F3688179818A810E94C519FD
:102850008C010E9424190E94EB17B801CE01DF9170
:10286000CF911F910F910C94ED110E94B51A0E9407
:10287000C51A0E948A1A0E94DE1A0E94C51F0E9471
:10288000191F90E080E00E94970F90E080E00C9488
:10289000AD0F0E94A51A0C9435140E94BB19E92FA4
:1028A000E295EF70E250EE3070F4F0E0E95DF64D45
:1028B0000C94A028803F19F020F4803E20F481E0A1
:1028C0000895843FE1F380E00895803EC0F3813FA6
:1028D000D1F7F5CF93FB882780F90895CF93DF9345
:1028E00000D000D00F92CDB7DEB70F900F900F90B1
:1028F0000F900F90DF91CF910895CF93DF9300D089
:1029000000D000D0CDB7DEB726960FB6F894DEBF64
:102910000FBECDBFDF91CF9108951F93CF93DF936B
:10292000C0918E0116E080918F018C1304C0DF915D
:10293000CF911F910895D0E01C9FF0011D9FF00DD5
:102940001124E057FE4F408151816281738184815F
:1029500095810E947D142196C770E5CF4091C001FA
:102960005091C1016091C2017091C3018091C40175
:102970009091C5010C947D141F93CF93DF938091A8
:10298000C501807FC1F48091C2018823A1F08091AC
:102990008E01C0918F016091C0017091C101409181
:1029A000C3015091C401D62FD723DA01A095B09569
:1029B00016E0C81304C0DF91CF911F91089590E0F5
:1029C0004115510511F0DF3F31F401968770F1CFC9
:1029D0002A0F3B1F17C0189FF001199FF00D1124FB
:1029E000E057FE4F21812713F0CF20812613EDCF32
:1029F00022812111EACF238134812417350740F346
:102A0000241B350B283C310500F72091C5012F70A0
:102A100020612093C50126E0289FF001299FF00D39
:102A20001124EB56FE4F80818F708061808380EC93
:102A300091E00E940B14DF91CF911F910C948D14A3
:102A4000BF92CF92DF92EF92FF920F931F93CF939B
:102A5000DF93CDB7DEB761970FB6F894DEBF0FBE38
:102A6000CDBF8C0185E0F801DE011D9601900D922D
:102A70008A95E1F7D8014C9111965C9111971296C5
:102A8000EC9012978091C3019091C401009709F4D2
:102A90007FC12091C0013091C101622F63236F3F3C
:102AA00009F476C11396CD90DC90B090C201BB20A2
:102AB00009F413C1C816D906D0F1F601E81BF90BC9
:102AC000CF01FF24F394883C910508F0F12C80910C
:102AD000C501982F907FFF2009F4B6C091117FC0E7
:102AE000FE2C351329C0241327C0E11025C08F7098
:102AF00080618093C5010E94AE1480EC91E00E9439
:102B00000B148091C501D80115968C938F2D619679
:102B10000FB6F894DEBF0FBECDBFDF91CF911F91EE
:102B20000F91FF90EF90DF90CF90BF900895809528
:102B300090958C0D9D1DC5CFCD2829F0852F842320
:102B40008F3F09F033C180E0B82FB170DB2E80FFDA
:102B50003CC080918E0120918F0136E0821315C018
:102B60004D875E878D859E850E94BB19292F2295F2
:102B70002F702230F0F0243018F59F70F1F0F8013A
:102B80009581907FD1F4D12C1EC090E0389FF00148
:102B9000399FF00D1124E057FE4F6181651306C087
:102BA0006081641303C06281E6120FC001968770D2
:102BB000D5CF9F7011F0882331F3805E883018F3F1
:102BC000C8010E940B14FD2CA1CFEE2009F49ECF6A
:102BD0008091C50181608093C501F12C97CF351399
:102BE00006C0241304C0D801EE2009F49CC04D8710
:102BF0005E878D859E850E944D14882309F4D2C07E
:102C0000EE2009F4CFC08091C501803270F0209190
:102C1000C0013091C10138872F831986DB86CA86AF
:102C20008C87CE0107960E940B1486E0F801A0EC79
:102C3000B1E001900D928A95E1F70E94BC140E94C8
:102C4000AE14FF24F39462CF911115C07C2DD98A64
:102C5000C88A6E2D89890E946E1480EC91E00E94D2
:102C60000B1486E0E0ECF1E0DF011D928A95E9F7B4
:102C70000E94AE144BCF351312C0241310C0E110C4
:102C80000EC0F8018583C8010E940B14E0ECF1E04E
:102C900086E0DF011D928A95E9F7FB2C37CF4D873F
:102CA0005E878D859E850E944D14882309F47AC025
:102CB000EE2009F477C08091C501803208F4B5CFC9
:102CC0002091C0013091C1013A8329831B82DD82AA
:102CD000CC828E83CE010196A6CFC816D90688F184
:102CE000F601E81BF90BCF01F12C883C910508F0A7
:102CF00047C0FE2CEE2009F455C0351330C0241314
:102D00002EC08091C50180FD21C0982F907FF1F0E9
:102D1000D80115968C931597903F39F0982F907F96
:102D2000905F8F70892B15968C93C8010E940B14AD
:102D300086E0F801A0ECB1E001900D928A95E1F7F0
:102D400097CF809590958C0D9D1DCECF86E0F80194
:102D5000A0ECB1E001900D928A95E1F7D7CE4D87B6
:102D60005E878D859E850E944D1481115ECF809176
:102D7000C50181608093C501C8010E940B14C6CEB5
:102D80007C2DD98AC88A6E2D89890E946E1469CFDC
:102D9000EE2041F04D875E878D859E850E944D1403
:102DA000811143CFC8010E940B144BCF81E08E25C7
:102DB000CBCE1F93CF93DF93CDB7DEB72C970FB653
:102DC000F894DEBF0FBECDBF4F83588769877A87DF
:102DD0008B879C87CE0107960E942015882369F077
:102DE0008A859B85892B39F04F815885842F8523CF
:102DF0008F3F09F071C016E05FC086E0FE01379694
:102E0000DE01119601900D928A95E1F78A859B85E6
:102E1000892B89F388859F8189238F3F61F32091D6
:102E20008F0130E0C90101968770992740918E018A
:102E30004817190671F40E94491410928F011092DC
:102E40008E0186E0E0ECF1E0DF011D928A95E9F762
:102E5000D2CF96E0929FD001939FB00D1124A0573E
:102E6000BE4FFE01319601900D929A95E1F7809345
:102E70008F010E948D14BFCF819FC0011124805704
:102E80009E4F0E9420158823E9F0E0918E011E9F3D
:102E9000F0011124E057FE4F40815181628173811E
:102EA000848195810E947D1480918E0190E001962D
:102EB0008770992780938E0180918E0190918F0168
:102EC0008913DACF2C960FB6F894DEBF0FBECDBFB4
:102ED000DF91CF911F91089569857A858B859C85B7
:102EE0000E947D1488CFEF92FF920F931F93CF9390
:102EF000DF938C01892B81F0F12CEE24E394E8011F
:102F00002196F8018491843770F4843008F05FC012
:102F10008130B1F08230A1F1DF91CF911F910F91FB
:102F2000FF90EF900895853709F44CC008F43DC038
:102F30009CE7980F903780F78F770E94901149C0D7
:102F40000E5F1F4FFE01849190E2980F983060F45D
:102F50008770FE2D01C0FF0F8A95EAF78F2F0E9420
:102F6000B81A0E94DE1A02C00E94B4108F2D815040
:102F700030F2EFE9FFE03197F1F700C00000F7CF42
:102F80000E5F1F4FFE01849190E2980F983050F42D
:102F90008770FE2D01C0FF0F8A95EAF78F2F0E94E0
:102FA000BE1ADFCF0E949011E1CF0E5F1F4FFE01CE
:102FB000C491C150D8F28FE99FE00197F1F700C0AA
:102FC0000000F7CF0E5F1F4FFE01F490CFCF0E949D
:102FD000B4108E01CBCF08956093F7017093F80180
:102FE0008093F9019093FA010C9435140F931F9379
:102FF0000091F7011091F8012091F9013091FA0147
:10300000DC01CB01802B912BA22BB32B8093F701FA
:103010009093F801A093F901B093FA011F910F91D9
:103020000C9435140F931F930091F7011091F80140
:103030002091F9013091FA01DC01CB018023912329
:10304000A223B3238093F7019093F801A093F90191
:10305000B093FA011F910F910C9435140F931F93A5
:103060000091F7011091F8012091F9013091FA01D6
:10307000DC01CB0180279127A227B3278093F7019A
:103080009093F801A093F901B093FA011F910F9169
:103090000C9435141092F3011092F4011092F50182
:1030A0001092F6010C94351441E050E060E070E0BD
:1030B00004C0440F551F661F771F8A95D2F74093AF
:1030C000F3015093F4016093F5017093F6010C94B1
:1030D000351441E050E060E070E004C0440F551F3B
:1030E000661F771F8A95D2F78091F3019091F401C2
:1030F000A091F501B091F601842B952BA62BB72B4F
:103100008093F3019093F401A093F501B093F6013D
:103110000C94351441E050E060E070E004C0440FCE
:10312000551F661F771F8A95D2F740955095609579
:1031300070958091F3019091F401A091F501B09107
:10314000F60184239523A623B7238093F30190935C
:10315000F401A093F501B093F6010C94351441E00D
:1031600050E060E070E004C0440F551F661F771FF9
:103170008A95D2F78091F3019091F401A091F50125
:10318000B091F60184279527A627B7278093F301EE
:103190009093F401A093F501B093F6010C943514CB
:1031A0000F931F930091F3011091F4012091F50109
:1031B0003091F601DC01CB01802B912BA22BB32B9C
:1031C0008093F3019093F401A093F501B093F6017D
:1031D0001F910F910C9435140F931F930091F301DD
:1031E0001091F4012091F5013091F601DC01CB0141
:1031F00080239123A223B3238093F3019093F401BE
:10320000A093F501B093F6011F910F910C94351422
:103210000F931F930091F3011091F4012091F50198
:103220003091F601DC01CB0180279127A227B3273B
:103230008093F3019093F401A093F501B093F6010C
:103240001F910F910C94351408952EE0929F800DDC
:103250001124982F977041E001C0440F9A95EAF726
:1032600086958695869595E0899FF0011124EA530D
:10327000FE4F90E080E070E05191DF0111979B01DB
:10328000082E02C0369527950A94E2F72170219501
:103290002527242325272C9301968530910561F756
:1032A00008952EE0929F800D1124982F9770869597
:1032B0008695869525E0829FF0011124EA53FE4F02
:1032C00050E040E080E0219130E0092E02C03695C8
:1032D00027950A94E2F721703327042E01C0220FAC
:1032E0000A94EAF7822B4F5F5F4F4530510559F73B
:1032F0000895BF92CF92DF92EF92FF920F931F93A8
:10330000CF93DF938C01C090F301D090F401E09053
:10331000F501F090F6018091F7019091F801A091EC
:10332000F901B091FA01C82AD92AEA2AFB2ACFE189
:10333000D0E0BC2ED701C6010C2E04C0B695A795CF
:10334000979587950A94D2F780FD0EC0219788F74C
:10335000B12C8B2DDF91CF911F910F91FF90EF90AA
:10336000DF90CF90BF900895B8018C2F0E94B006D7
:10337000019761F3EECFCF93DF93EC010E947919AF
:10338000BE01DF91CF910C94B0061F93CF93DF93D2
:10339000EB0190918D01992331F0CB01DF91CF9119
:1033A0001F910C94BB19882379F0CB010E947919E5
:1033B000182F682FCE010E942519BE01812FDF91A1
:1033C000CF911F910C94B006CB010E945119182F78
:1033D000F4CF8091FB018595859585950895809121
:1033E000FB018770089598E0899F90011124622B5A
:1033F0006093FB010C9469189091FB0180958923DF
:103400008093FB01282F277061F4282F082E000CD1
:10341000330B9217130629F08595859585950C94A5
:103420008A1808959091FB01977081E009F480E07B
:103430000895909113019923E1F09091710297FF03
:1034400018C0E82FE695E695E695EF3139F1209121
:10345000010130910201E20FF32FF11D877021E08D
:1034600030E001C0220F8A95EAF78181822B8183A7
:1034700008952091010130910201F90132969FEFE8
:1034800040E05191851751F09F3F19F4511101C04F
:10349000942F4F5F4E31A9F79F3F09F40895290FEC
:1034A000311D97FD3A95F90182830895909113019A
:1034B0009923F1F09091710297FF1AC0E82FE695D9
:1034C000E695E695EF3129F1209101013091020155
:1034D000E20FF32FF11D282F277081E090E001C04B
:1034E000880F2A95EAF78095918189238183089531
:1034F0002091010130910201F9013296205E3F4F87
:103500009191891303C0DF0111971C92E217F30711
:10351000B9F7089581E090E0E0910101F091020196
:10352000E80FF91F1082019680329105A9F70895DE
:1035300090911F02892B80931F020895809590918E
:103540001F02982390931F02089510921F0208955E
:1035500090911E02892B80931E0208958095909170
:103560001E02982390931E02089510921E02089541
:1035700090911D02892B80931D0208958095909152
:103580001D02982390931D02089510921D02089524
:103590008093FC0108951092FC010895209101018F
:1035A00030910201F9013196205E3F4F80E0919108
:1035B00091118F5FE217F307D1F70895E0910101B0
:1035C000F091020180911F028083E0910101F0914E
:1035D0000201808190911E02892B8083E09101017C
:1035E000F0910201808190911D02892B808390913E
:1035F000FC01992361F0E0910101F09102018081C9
:10360000892B80830E94CE1A81111092FC01809137
:103610000101909102010C94810F6DEE7EEF90E01C
:1036200080E00E94D82860E082E090E00E94BA2802
:1036300060E083E090E00E94BA2860E084E090E0DF
:103640000E94BA2860E085E090E00E94BA2860E01D
:1036500086E090E00E94BA2840E050E0BA0188E09D
:1036600090E00C94CC2890E080E00E94B42821E007
:103670008D3E9E4F09F020E0822F089582E090E079
:103680000C94A628682F82E090E00C94BA2883E07E
:1036900090E00C94A628682F83E090E00C94BA2860
:1036A00084E090E00C94A628682F84E090E00C94CD
:1036B000BA2886E090E00C94A628682F86E090E077
:1036C0000C94BA2880917802843051F11092210232
:1036D00088E190E020E40FB6F894A895809360000C
:1036E0000FBE2093600080E00E94610680E00E948F
:1036F000910683B7817F846083BF83B7816083BF76
:103700007894889583B78E7F83BF0FB6F894A89579
:1037100080916000886180936000109260000FBE0D
:10372000089508950895CF930E94911B0E947E09E9
:103730000E94921BC0E08C2F0E944B0A892B31F40F
:10374000CF5FC530C1F780E0CF91089581E0FCCF15
:103750000E9449140E94D11F0E94750F0C9491067B
:103760001F921FB61F9211248F939F93AF93BF9305
:1037700080912102811113C080916D0290916E029F
:10378000A0916F02B09170024196A11DB11D80936E
:103790006D0290936E02A0936F02B0937002BF917E
:1037A000AF919F918F911F901FBE1F90189582E03F
:1037B00084BD93E095BD9AEF97BD80936E00089508
:1037C0002FB7F89480916D0290916E02A0916F02D4
:1037D000B09170022FBF0895CF92DF92EF92FF92C7
:1037E0000F931F932FB7F89440916D0250916E0282
:1037F00060916F02709170022FBF6A017B01EE240D
:10380000FF248C0130E020E0C016D106E206F3066A
:1038100050F0481B590BCA011F910F91FF90EF9078
:10382000DF90CF90089541505109F3CF1F921FB6FA
:103830001F9211248F939F93AF93BF9380916D023A
:1038400090916E02A0916F02B09170020196A11D3D
:10385000B11D80936D0290936E02A0936F02B0939E
:103860007002BF91AF919F918F911F901FBE1F90CB
:1038700018950E945424F8942FEF87EA91E621507E
:1038800080409040E1F700C0000087E090EBDC0151
:103890008093810290938202A0938302B09384026A
:1038A00088E19CE00FB6F894A895809360000FBE65
:1038B00090936000FFCFAF92BF92CF92DF92EF92D2
:1038C000FF920F931F93CF93C0E0CC24C394D12CCD
:1038D000E82EF12C8C2F0E944B0A5C0110E000E0D6
:1038E000C601002E02C0880F991F0A94E2F78A21B0
:1038F0009B21892B99F40F5F1F4F0E30110581F723
:10390000CF5FC53039F780E0CF911F910F91FF90C5
:10391000EF90DF90CF90BF90AF900895602F7C2FF5
:1039200080E00E949406E816F90629F781E0ECCFC2
:10393000CF93C82F8CE20E945B1C882321F08C2F30
:10394000CF910C945B1C80E0CF910895CF930E949F
:10395000331B811102C00E940D1BC5E608C00E94E6
:103960007E098FE39CE90197F1F700C00000C15088
:10397000B1F789E20E94981C8111EFC08AE20E948F
:10398000981C81110E940D1B85E00E94981C8111DA
:103990000E94391C0E943E1B8093200287E00E94F7
:1039A000981C882371F08BE10E94981C882309F4ED
:1039B000B1C090912002892F8D7F91FF826080930A
:1039C0002002809120020E94421B0E94501B90E026
:1039D000909372028093710280EE0E94981C88235B
:1039E00041F090917102892F8E7F90FF81608093CA
:1039F000710289E30E94981C882341F09091710222
:103A0000892F8D7F91FF82608093710282EE0E94E8
:103A1000981C882341F090917102892F8B7F92FF2F
:103A200084608093710286EE0E94981C882341F086
:103A300090917102892F877F93FF88608093710234
:103A400083EE0E94981C882341F090917102892F87
:103A50008F7E94FF80618093710285E30E94981CA1
:103A6000882341F090917102892F8F7D95FF8062AC
:103A70008093710281E30E94981C882341F0909109
:103A80007102892F8F7B96FF80648093710281E1A0
:103A90000E94981C882341F090917102892F97FB16
:103AA00087F9805880937102809171020E94541BA3
:103AB00087E20E94981CC82F8EE10E94981C8111F9
:103AC000C2608FE10E94981C8111C46080E20E9454
:103AD000981C8111C86081E20E94981C8111C0610C
:103AE00082E20E94981C8111C06283E20E94981CAD
:103AF0008111C06484E20E94981C882341F1C0684F
:103B00008C2F0E944B1B6C2F70E090E080E0CF91D7
:103B10000C94EC178EE00E94981C882339F0909149
:103B20002002892F8B7F92FF846049CF80E10E9421
:103B3000981C90912002882329F0892F877F93FF7A
:103B400088603DCF892F8E7F90FF816038CFC11173
:103B5000D7CF0E94471B682FD7CFCF910895809170
:103B6000240280FF12C06091060185E0689FB001C9
:103B70001124759567957595679560387105A8F559
:103B800061157105A1F1862F089581FF09C060912B
:103B9000060185E0689FB001112475956795EDCF0A
:103BA0006091060182FD0AC0809125028823D1F030
:103BB0009091050160910601891728F085E0689FC2
:103BC000B0011124DACF869FB001112485E0869FD1
:103BD0009001879F300D1124692F70E0C9010E9468
:103BE0008C28CBCF65E070E0CECF8FE7089581E0E1
:103BF00008958091240280FF0CC06091040170E060
:103C000075956795759567956115710549F1862FCD
:103C1000089581FF06C06091040170E07595679575
:103C2000F3CF6091040182FD0BC09091250299238E
:103C3000A1F06091030180910401961738F0682F7C
:103C400070E06038710500F38FE70895899FC00127
:103C5000112470E00E948C28F4CF61E070E0D7CF8F
:103C600081E00895803F31F40E94AF1D81958093DB
:103C700028020895813F19F40E94AF1DF8CF823FBA
:103C800031F40E94AF1D8195809327020895833FF0
:103C900019F40E94AF1DF8CF893F29F40E94F91D45
:103CA0008093290208958A3F21F40E94F91D81958D
:103CB000F7CF8B3F31F40E94F91D819580932A0242
:103CC00008958C3F19F40E94F91DF8CF843F31F418
:103CD000809126028160809326020895853F21F419
:103CE000809126028260F7CF863F21F480912602E0
:103CF0008460F1CF873F21F4809126028860EBCF6A
:103D0000883F21F4809126028061E5CF8D3F31F418
:103D10008091240281608093240208958E3F21F4D3
:103D2000809124028260F7CF8F3FB9F780912402FF
:103D30008460F1CF90912702803F41F48091280266
:103D400087FD10922802992371F00895813F29F48C
:103D5000809128021816ACF3F6CF823F81F497FFCA
:103D6000F2CF109227028091280290912902892B8C
:103D700090912A02892B49F7109225020895833FDA
:103D800019F4191674F3DFCF893F39F480912902B1
:103D90001816CCF610922902D6CF8A3F29F48091CA
:103DA000290287FFD0CFF6CF8B3F39F480912A02CA
:103DB00087FFC9CF10922A02C6CF8C3F29F4809189
:103DC0002A021816BCF3BFCF843F31F4809126023B
:103DD0008E7F80932602B7CF853F21F48091260203
:103DE0008D7FF7CF863F21F4809126028B7FF1CF24
:103DF000873F21F480912602877FEBCF883F21F413
:103E0000809126028F7EE5CF8D3F31F48091240290
:103E10008E7F8093240297CF8E3F21F480912402DD
:103E20008D7FF7CF8F3F09F08ECF809124028B7F5B
:103E3000F0CF86E292E00E948C0F0E94E01B9093EC
:103E400023028093220208951F93CF93DF938091E2
:103E50002202909123020E94EC1BAC01909125025A
:103E60002091070130E0911106C0209108018AE0FD
:103E7000289F900111244217530778F020912702C0
:103E8000C0912802D091290210912A02211109C063
:103E90008C2F8D2B812B09F074C0DF91CF911F9156
:103EA00008959F3F19F09F5F90932502121624F406
:103EB0000E94AF1D809327028091270287FF05C0D3
:103EC0000E94AF1D8195809327021C1624F40E9446
:103ED000AF1D809328028091280287FF05C00E94B1
:103EE000AF1D81958093280260912702662331F1EE
:103EF000C0912802CC2311F1062E000C770B880B01
:103F0000990B0E947F2723E333E343E35FE30E949F
:103F1000E3270E944727609327026C2FCC0F770B73
:103F2000880B990B0E947F2723E333E343E35FE38E
:103F30000E94E3270E944727609328021D1624F45D
:103F40000E94F91D809329028091290287FF05C0F4
:103F50000E94F91D819580932902111624F40E9474
:103F6000F91D80932A0280912A0287FF05C00E94D2
:103F7000F91D819580932A02DF91CF911F910C94B6
:103F8000191F9F3F09F08FCFA0CF85E0E6E2F2E056
:103F9000DF011D928A95E9F7109225021092240202
:103FA00008950E94331B811102C00E940D1B0E94C4
:103FB000591B8093730280FF03C086950C946106A1
:103FC00080E0FCCF80917302982F9695933030F467
:103FD0009F5F990F8170892B809373028091730288
:103FE0008160809373020E945D1B809173028695AD
:103FF0000C94610680917302982F9E7F79F0825015
:10400000809373028E7F91E009F490E080917302B7
:1040100090FB80F9809373020E945D1B8091730274
:1040200086950C94610690917302892F8E7F90FF84
:104030008160809373020E945D1B8091730280FFF8
:1040400003C086950C94610680E0FCCF90917302CA
:10405000892F86958F5F8F7791708430B8F4880FA1
:10406000892B80937302809173028E7F91E009F413
:1040700090E08091730290FB80F9809373020E941C
:104080005D1B8091730286950C9461069093730278
:10409000EACF90917302292F26958227880F91707D
:1040A000982B909373029E7F21E009F420E0809189
:1040B000730220FB80F9809373020E945D1B809144
:1040C000730286950C94610680914B020895CF93FC
:1040D000DF9300D00F92CDB7DEB79C0180917802BC
:1040E000843019F593E099833B832A839093E90008
:1040F0008FEF9091E800815095FD06C095ED9A955F
:10410000F1F700008111F5CF8091E80085FF0DC027
:1041100050E040E063E070E0CE0101960E94C622CC
:104120008091E8008E778093E8000F900F900F90B9
:10413000DF91CF910895CF93DF9300D00F92CDB749
:10414000DEB720917802243031F522E029838058AF
:1041500091099B838A8383E08093E9008FEF90919C
:10416000E800815095FD06C095ED9A95F1F70000A5
:104170008111F5CF8091E80085FF0DC050E040E04F
:1041800063E070E0CE0101960E94C6228091E800B3
:104190008E778093E8000F900F900F90DF91CF9172
:1041A00008959C01809178028430F9F482E0809334
:1041B000E9009FEF8091E800915085FD06C085EDF4
:1041C0008A95F1F700009111F5CF8091E80085FF05
:1041D0000CC050E040E065E070E0C9010E94C622DA
:1041E0008091E8008E778093E8000895CF93DF9365
:1041F000EC01809178028430F1F4909113019923BD
:10420000E9F09091710297FF19C08093E9008FEF58
:104210009091E800815095FD06C095E19A95F1F7DF
:1042200000008111F5CF8091E80050E040E060E2AD
:1042300070E085FD1AC0DF91CF91089581E08093F1
:10424000E9008FEF9091E800815095FD06C095ED53
:104250009A95F1F700008111F5CF8091E80085FF74
:10426000EACF50E040E068E070E0CE010E94C62254
:104270008091E8008E778093E80080E2FE01ABE257
:10428000B2E001900D928A95E1F7D5CF8091770247
:10429000811109C00E9454240E94B1248091E2003F
:1042A00084608093E2000895109277020895089543
:1042B00008950C94A81B42E061EC81E00E94D22397
:1042C00042E061EC82E00E94D22342E061EC83E0B4
:1042D0000E94D22342E261EC84E00C94D2238091CC
:1042E0007A02833009F455C030F4813071F18230A4
:1042F00009F491C008958A3009F47DC08B3009F427
:1043000063C0893009F044C080917902813209F09C
:104310003FC080917D0290917E02009711F003973B
:10432000B9F58091E800877F8093E8008091E800EC
:1043300082FF2AC08091F10080934B028091E800B7
:104340008B778093E8000C94062480917902813A5F
:10435000F9F48091E800877F8093E80080917D02E6
:1043600090917E02892B61F460E28BE292E070E032
:104370000E9415238091E8008B778093E8000895D0
:1043800060E090E080E0F3CF809178028111CECFA1
:10439000089580917902813AD9F780917D029091B8
:1043A0007E02892BA9F78091E800877F8093E8003F
:1043B0008091E80080FFFCCF809113018093F10091
:1043C0008091E8008E77BDCF80917902813201F72C
:1043D00080917D0290917E02892BD1F68091E80038
:1043E000877F8093E8000E94062480917B0280935F
:1043F00013010C94491480917902813249F680911D
:10440000E800877F8093E8000E94062480917C0268
:1044100080934C02089580917902813A09F0B8CFD7
:104420008091E800877F8093E8008091E80080FF1A
:10443000FCCF80914C02C2CF84B7877F84BF0FB678
:10444000F894A89580916000886180936000109234
:1044500060000FBE80E880936100109261000E94AE
:10446000C40F0E9454240E94B1248091E200846011
:104470008093E20078940E942B270E94C60F89E067
:1044800091E00E94700F80917802853029F00E949F
:10449000D00F0E943D0FF7CF0E94621B80917602E1
:1044A000882389F30E94931B882369F30E94B0221A
:1044B000EACF292F33272330310521F168F4213049
:1044C000310509F443C02230310509F444C090E0BD
:1044D00080E030E020E026C02132310551F1223267
:1044E0003105A9F7643098F770E0FB01EE0FFF1F6C
:1044F000E55DFE4F20813181695D7E4FFB0180814A
:1045000090E010C099278130910581F0009729F043
:104510000297E9F6E9E1F7E002C0E5E4F7E084910B
:1045200090E09F01FA01318320830895EDE2F7E0E6
:10453000F6CF643060F6E62FF0E0EE0FFF1FED5C83
:10454000FE4F2081318189E090E0ECCF82E190E064
:1045500026EB37E0E7CF8DE690E029E437E0E2CFC5
:1045600080E189BD82E189BD09B400FEFDCF809163
:10457000D8008F7D8093D8008091E0008260809386
:10458000E0008091E00081FDFCCF0895AF92BF92E2
:10459000CF92DF92FF920F931F93CF93DF936C0123
:1045A000EB018A010E942524F82E811123C00115F8
:1045B000110539F0F80180819181C81BD90BC80E13
:1045C000D91EB12CA12C2097A9F08091E80085FD7F
:1045D00022C08091E8008E778093E80001151105D4
:1045E000A1F0F80180819181A80EB91EB182A0824C
:1045F00085E0F82E8F2DDF91CF911F910F91FF90C5
:10460000DF90CF90BF90AF9008950E94252488231B
:10461000D1F2F82EEFCFF60181916F018093F10076
:104620002197FFEFAF1ABF0ACECFFC0180917F0226
:104630009091800286179707A0F06115710529F403
:104640009091E8009E779093E80090E061157105E5
:1046500051F4911108C08091E80082FF34C080E0DD
:104660000895BC01F2CF809178028823C1F1853092
:10467000C1F18091E80083FD30C08091E80082FDA7
:10468000EACF8091E80080FFE1CF8091F300209194
:10469000F200382F6115710519F02830310558F0F6
:1046A00091E02830310509F090E02091E8002E7764
:1046B0002093E800CBCF81918093F1006150710984
:1046C0002F5F3F4FE7CF80917802882341F08530FC
:1046D00041F08091E80083FFBECF81E0089582E041
:1046E000089583E00895FC0180917F0290918002FB
:1046F00086179707A0F06115710529F48091E800ED
:104700008E778093E80090E06115710551F4911166
:1047100008C08091E80082FF35C080E00895BC01A8
:10472000F2CF809178028823C9F18530C9F1809158
:10473000E80083FD31C08091E80082FDEACF8091DE
:10474000E80080FFE1CF8091F3002091F200382F44
:104750006115710519F02830310558F091E02830C5
:10476000310509F090E08091E8008E778093E800B1
:10477000CBCF84918093F1003196615071092F5F06
:104780003F4FE6CF80917802882341F0853041F099
:104790008091E80083FFBDCF81E0089582E0089515
:1047A00083E00895982F973028F08F708093E90068
:1047B00081E008959093E900242F762F50E0981718
:1047C00031F07091EC002091ED005091F00021FD4E
:1047D00002C09F5FE8CF3091EB003E7F3093EB004B
:1047E0003091ED003D7F3093ED003091EB00316072
:1047F0003093EB007093EC002093ED005093F000A9
:104800002091EE0027FDE5CF80E0089580917902A8
:1048100087FF13C08091E80082FF06C08091E80006
:104820008B778093E80004C0809178028111F2CFE9
:104830000895809178028823D9F38091E80080FF61
:10484000F8CF8091E8008E77ECCF2091E400309192
:10485000E50085E6A9019091EC0090FF06C09091DB
:10486000E80090FF06C080E008959091E80092FD76
:10487000FACF90917802992389F0953089F0909140
:10488000EB0095FD0FC02091E4003091E500421748
:10489000530709F38150F1F684E0089582E008950A
:1048A00083E0089581E008950E94C2240E94CA24F2
:1048B000E0EEF0E0808181608083E8EDF0E08081CF
:1048C0008F77808319BCA7EDB0E08C918E7F8C939D
:1048D00080818F7E80831092770208950F931F93BB
:1048E000CF93DF930E94C2240E94CA24C8EDD0E077
:1048F00088818F77888388818068888388818F7D8D
:10490000888319BC10927802109274021092760279
:104910001092750200EE10E0F80180818B7F808399
:1049200088818160888342E060E080E00E94D22339
:10493000E1EEF0E080818E7F8083E2EEF0E0808126
:1049400081608083808188608083F80180818E7F90
:104950008083888180618883DF91CF911F910F913F
:104960000895E8EDF0E080818F7E8083E7EDF0E050
:1049700080818160808384E082BF81E080937702C0
:104980000C946E24E8EDF0E080818E7F808310929D
:10499000E20008951092DA001092E10008951F924B
:1049A0000F920FB60F9211242F933F934F935F9363
:1049B0006F937F938F939F93AF93BF93EF93FF93E7
:1049C0008091E10082FF0BC08091E20082FF07C06E
:1049D0008091E1008B7F8093E1000E942A278091E3
:1049E000DA0080FF19C08091D80080FF15C0809147
:1049F000DA008E7F8093DA008091D90080FF94C026
:104A000080E189BD82E189BD09B400FEFDCF81E06E
:104A1000809378020E9446218091E10080FF19C0B6
:104A20008091E20080FF15C08091E2008E7F80932C
:104A3000E2008091E20080618093E2008091D800E2
:104A400080628093D80019BC85E0809378020E9430
:104A500058218091E10084FF29C08091E20084FF09
:104A600025C080E189BD82E189BD09B400FEFDCF8A
:104A70008091D8008F7D8093D8008091E1008F7E57
:104A80008093E1008091E2008F7E8093E20080912C
:104A9000E20081608093E20080917402882309F42F
:104AA00049C084E0809378020E9459218091E100FE
:104AB00083FF29C08091E20083FF25C08091E1003F
:104AC000877F8093E10082E08093780210927402E5
:104AD0008091E1008E7F8093E1008091E2008E7FE3
:104AE0008093E2008091E20080618093E20042E0E6
:104AF00060E080E00E94D2238091F0008860809383
:104B0000F0000E945721FF91EF91BF91AF919F91CB
:104B10008F917F916F915F914F913F912F910F9066
:104B20000FBE0F901F90189519BC109278020E942A
:104B3000542172CF8091E30087FD02C081E0B2CFA3
:104B400083E0B0CF1F920F920FB60F9211242F93D4
:104B50003F934F935F936F937F938F939F93AF9305
:104B6000BF93CF93EF93FF93C091E900CF708091F3
:104B7000EC001092E9008091F000877F8093F000B4
:104B800078940E94DE251092E9008091F000886000
:104B90008093F000C093E900FF91EF91CF91BF9116
:104BA000AF919F918F917F916F915F914F913F91C5
:104BB0002F910F900FBE0F901F9018951F93CF93BA
:104BC000DF93CDB7DEB7AA970FB6F894DEBF0FBE5E
:104BD000CDBF89E792E02091F100FC012193CF0144
:104BE000F2E081389F07B9F70E946F218091E800B9
:104BF00083FF82C08091790290917A029A3008F006
:104C00007BC0E92FF0E0EB5CF64D0C94A0288038D7
:104C100081F0823809F070C080917D028F7080939E
:104C2000E9008091EB0085FB882780F91092E9006C
:104C300006C08091750290917602911182609091E8
:104C4000E800977F9093E8008093F1001092F100C4
:104C50008091E8008E77F9C0882309F4E6C082309D
:104C600009F04AC080917B028111EAC080917D02E7
:104C70008F7009F441C08093E9002091EB0020FF80
:104C8000DFC0933031F48091EB0080628093EB00C1
:104C9000D7C09091EB0090619093EB0021E030E061
:104CA00001C0220F8A95EAF72093EA001092EA00E9
:104CB0008091EB008860EACF81111EC010917B02C9
:104CC0001F778091E3008078812B8093E3008091AF
:104CD000E800877F8093E8000E9406248091E80026
:104CE00080FFFCCF8091E30080688093E30082E046
:104CF000111183E0809378028091E80083FF0AC05D
:104D00008091E800877F8093E8008091EB008062CB
:104D10008093EB00AA960FB6F894DEBF0FBECDBF0E
:104D2000DF91CF911F9108958058823028F78091AC
:104D30007B0290917C028C3D23E09207A1F583E0F9
:104D40008A838AE289834FB7F894DE01139620E0C4
:104D50003EE051E2E32FF0E050935700E49120FF52
:104D600003C0E295EF703F5FEF708E2F90E0EA3066
:104D7000C0F0C7968D939D932F5F243159F74FBF95
:104D80008091E800877F8093E8006AE270E0CE01BE
:104D900001960E9415238091E8008B778093E800AC
:104DA000ABCFC096E7CFAE014F5F5F4F60917D0202
:104DB0000E945922BC01892B09F49ECF9091E800F2
:104DC000977F9093E80089819A810E947323E3CFB3
:104DD000803809F091CF8091E800877F8093E800C8
:104DE000809174028093F10033CF811185CF90912F
:104DF0007B02923008F080CF8091E800877F80931B
:104E0000E800909374020E94062480917402882323
:104E100011F084E005C08091E30087FDFACF81E0C6
:104E2000809378020E945B2167CF80917B02813062
:104E300009F062CF81E0933009F080E08093760240
:104E40001092E9008091E800877F8093E8000E943B
:104E5000062452CF0895CF9380917802882399F049
:104E6000C091E900CF708091EC0080FD0EC080E021
:104E7000C82B1092E9008091E80083FD0E94DE2596
:104E8000CF70C093E900CF91089580E8F1CF0E94E0
:104E90004E276894B1110C94DD2708950E94C22713
:104EA00088F09F5798F0B92F9927B751B0F0E1F0EB
:104EB000660F771F881F991F1AF0BA95C9F714C09B
:104EC000B13091F00E94DC27B1E008950C94DC270A
:104ED000672F782F8827B85F39F0B93FCCF38695D4
:104EE00077956795B395D9F73EF490958095709531
:104EF00061957F4F8F4F9F4F0895E89409C097FBAE
:104F00003EF490958095709561957F4F8F4F9F4FA0
:104F10009923A9F0F92F96E9BB279395F6958795E4
:104F200077956795B795F111F8CFFAF4BB0F11F4A7
:104F300060FF1BC06F5F7F4F8F4F9F4F16C088234E
:104F400011F096E911C0772321F09EE8872F762F84
:104F500005C0662371F096E8862F70E060E02AF0C5
:104F60009A95660F771F881FDAF7880F96958795B1
:104F700097F9089557FD9058440F551F59F05F3F1A
:104F800071F04795880F97FB991F61F09F3F79F06B
:104F900087950895121613061406551FF2CF4695ED
:104FA000F1DF08C0161617061806991FF1CF86956F
:104FB0007105610508940895E894BB276627772753
:104FC000CB0197F908950E94F6270C9467280E9458
:104FD000592838F00E94602820F0952311F00C9495
:104FE00050280C94562811240C94DD270E94BA27CF
:104FF00070F3959FC1F3950F50E0551F629FF0012C
:10500000729FBB27F00DB11D639FAA27F00DB11D44
:10501000AA1F649F6627B00DA11D661F829F2227CD
:10502000B00DA11D621F739FB00DA11D621F839F54
:10503000A00D611D221F749F3327A00D611D231F2A
:10504000849F600D211D822F762F6A2F11249F5778
:1050500050409AF0F1F088234AF0EE0FFF1FBB1F7B
:10506000661F771F881F91505040A9F79E3F51053A
:1050700080F00C9450280C94DD275F3FE4F3983EB9
:10508000D4F3869577956795B795F795E7959F5FE4
:10509000C1F7FE2B880F911D9695879597F9089576
:1050A00097F99F6780E870E060E008959FEF80ECDB
:1050B000089500240A94161617061806090608957E
:1050C00000240A9412161306140605060895092EE4
:1050D0000394000C11F4882352F0BB0F40F4BF2B53
:1050E00011F460FF04C06F5F7F4F8F4F9F4F089593
:1050F000AA1BBB1B51E107C0AA1FBB1FA617B707FE
:1051000010F0A61BB70B881F991F5A95A9F7809519
:105110009095BC01CD01089597FB072E16F40094DD
:1051200007D077FD09D00E94782807FC05D03EF40F
:10513000909581959F4F0895709561957F4F089543
:10514000EE0FFF1F0590F491E02D0994F999FECF21
:1051500092BD81BDF89A992780B50895A6E1B0E087
:1051600044E050E00C94E028A8E1B0E042E050E0D8
:105170000C94E028262FF999FECF92BD81BDF89AB4
:10518000019700B4021639F01FBA20BD0FB6F8948B
:10519000FA9AF99A0FBE08950396272F0E94BB280A
:1051A0000E94BA28252F0E94BB28242F0C94BB28CC
:1051B0000196272F0E94BB280C94BA28DC01CB0152
:1051C000FC01F999FECF06C0F2BDE1BDF89A319617
:1051D00000B40D9241505040B8F70895F894FFCFB5
:1051E000BC05C805CC05D005D405D805DC05E0050F
:1051F000E405E805EC05F005F405F805FC050006F6
:10520000040608062012201270127012B212CE127A
:105210004D124D12D9124D1271137113CF13D813B1
:105220004D12F8137B137B137B137B137B137B13C0
:105230007B137B137B137B137B137B137B137B13FE
:105240007B137B13881396139D13A413AE135A1468
:105250005A146314631465146314631463145A14A6
:105260005A146A14631463146A1407262C267C26C5
:0E5270002C267C265C2694267C26E826F52635
:10527E00FFFD012808140A321E6420F620D1209B5F
:10528E0020672001F0F1C6676637943130353497C8
:10529E0096339091929395404D3639840837080194
:0C52AE0008C8075B0774078D07A60700FF
:00000001FF
